{
  "transactions": [
    {
      "hash": "0x26a96ab09b4e483128a8cb1312a1c54a71f15c50ed56cdeb3966be6865d71f30",
      "transactionType": "CREATE",
      "contractName": "CinchPayProcessor",
      "contractAddress": "0xd4abc1dbc1bfa47b702a3f23ec6f6ebf89d80a36",
      "function": null,
      "arguments": [
        "0xE8664c696a35186c47D3Aca5eb4aD77136b09C52",
        "0xE8664c696a35186c47D3Aca5eb4aD77136b09C52",
        "100"
      ],
      "transaction": {
        "from": "0xe8664c696a35186c47d3aca5eb4ad77136b09c52",
        "gas": "0xf9222",
        "value": "0x0",
        "input": "0x608060405234801561000f575f5ffd5b50604051610db4380380610db483398101604081905261002e91610189565b826001600160a01b03811661005c57604051631e4fbdf760e01b81525f600482015260240160405180910390fd5b6100658161011f565b5060017f9b779b17422d0df92223018b32b4d1fa46e071723d6817e2486d003becc55f00556001600160a01b0382166100b15760405163e6c4247b60e01b815260040160405180910390fd5b6101f461ffff821611156100d85760405163cd4e616760e01b815260040160405180910390fd5b600180546001600160a01b039093166001600160a01b0319909316929092179091555f805461ffff909216600160a01b0261ffff60a01b19909216919091179055506101d3565b5f80546001600160a01b038381166001600160a01b0319831681178455604051919092169283917f8be0079c531659141344cd1fd0a4f28419497f9722a3daafe3b4186f6b6457e09190a35050565b80516001600160a01b0381168114610184575f5ffd5b919050565b5f5f5f6060848603121561019b575f5ffd5b6101a48461016e565b92506101b26020850161016e565b9150604084015161ffff811681146101c8575f5ffd5b809150509250925092565b610bd4806101e05f395ff3fe608060405234801561000f575f5ffd5b50600436106100f0575f3560e01c8063715018a611610093578063d55be8c611610063578063d55be8c61461020e578063e156e49d14610217578063e74b981b1461022a578063f2fde38b1461023d575f5ffd5b8063715018a6146101c157806382dc4a05146101c95780638b6d33a5146101eb5780638da5cb5b146101fe575f5ffd5b80634349597a116100ce5780634349597a1461013e57806343562bc4146101515780634648c943146101645780634690484014610196575f5ffd5b8063023b1fc9146100f4578063249d39e91461010957806324a9d8531461012a575b5f5ffd5b61010761010236600461094d565b610250565b005b61011261271081565b60405161ffff90911681526020015b60405180910390f35b5f5461011290600160a01b900461ffff1681565b61010761014c36600461099f565b6102e8565b61010761015f3660046109d0565b610375565b610186610172366004610a0f565b60036020525f908152604090205460ff1681565b6040519015158152602001610121565b6001546101a9906001600160a01b031681565b6040516001600160a01b039091168152602001610121565b610107610478565b6101866101d7366004610a26565b60026020525f908152604090205460ff1681565b6101076101f9366004610a3f565b61048b565b5f546001600160a01b03166101a9565b6101126101f481565b610107610225366004610a88565b610645565b610107610238366004610a26565b61070b565b61010761024b366004610a26565b6107a3565b6102586107e5565b6101f461ffff8216111561027f5760405163cd4e616760e01b815260040160405180910390fd5b5f546040805161ffff600160a01b9093048316815291831660208301527f2e7c4279000925b8ff0bca0e7109cbc47fc6f6c4edfb831ffe7466cf0af07fa0910160405180910390a15f805461ffff909216600160a01b0261ffff60a01b19909216919091179055565b6102f06107e5565b6001600160a01b0382166103175760405163e6c4247b60e01b815260040160405180910390fd5b6001600160a01b0382165f81815260026020908152604091829020805460ff191685151590811790915591519182527f4830f50c82a3c08b91bf3770bf51afe49fb5fac668efd79737a514ba1a77d8ff910160405180910390a25050565b61037d610811565b6001600160a01b0384166103a45760405163e6c4247b60e01b815260040160405180910390fd5b815f036103c45760405163162908e360e11b815260040160405180910390fd5b6001600160a01b0383165f9081526002602052604090205460ff166103fc5760405163e51cf7bf60e01b815260040160405180910390fd5b6104116001600160a01b03841633868561082c565b60408051838152602081018390526001600160a01b03808616929087169133917fa71927487ebcc611a6e0f053c965c77ee0d80e4bc9c9d6a5959bceeff8e585a4910160405180910390a461047260015f516020610b7f5f395f51905f5255565b50505050565b6104806107e5565b6104895f610862565b565b610493610811565b6001600160a01b0385166104ba5760405163e6c4247b60e01b815260040160405180910390fd5b825f036104da5760405163162908e360e11b815260040160405180910390fd5b6001600160a01b0384165f9081526002602052604090205460ff166105125760405163e51cf7bf60e01b815260040160405180910390fd5b5f8281526003602052604090205460ff16156105415760405163424e8d7160e01b815260040160405180910390fd5b5f828152600360205260408120805460ff1916600117905580546127109061057490600160a01b900461ffff1686610b1b565b61057e9190610b38565b90505f61058b8286610b57565b90508582156105b0576001546105b0906001600160a01b03838116913391168661082c565b6105c56001600160a01b038216338a8561082c565b604080518781526020810184905290810184905260608101869052608081018590526001600160a01b038089169133918b16907f0794167639ff1d71a30e8db2f9004ab7133e5b1e3fce995bcf3ccfe2c71e10a09060a00160405180910390a450505061063e60015f516020610b7f5f395f51905f5255565b5050505050565b61064d6107e5565b5f5b82811015610472575f84848381811061066a5761066a610b6a565b905060200201602081019061067f9190610a26565b90506001600160a01b0381166106a85760405163e6c4247b60e01b815260040160405180910390fd5b6001600160a01b0381165f81815260026020908152604091829020805460ff191687151590811790915591519182527f4830f50c82a3c08b91bf3770bf51afe49fb5fac668efd79737a514ba1a77d8ff910160405180910390a25060010161064f565b6107136107e5565b6001600160a01b03811661073a5760405163e6c4247b60e01b815260040160405180910390fd5b600154604080516001600160a01b03928316815291831660208301527faaebcf1bfa00580e41d966056b48521fa9f202645c86d4ddf28113e617c1b1d3910160405180910390a1600180546001600160a01b0319166001600160a01b0392909216919091179055565b6107ab6107e5565b6001600160a01b0381166107d957604051631e4fbdf760e01b81525f60048201526024015b60405180910390fd5b6107e281610862565b50565b5f546001600160a01b031633146104895760405163118cdaa760e01b81523360048201526024016107d0565b6108196108b1565b60025f516020610b7f5f395f51905f5255565b61083a8484848460016108e0565b61047257604051635274afe760e01b81526001600160a01b03851660048201526024016107d0565b5f80546001600160a01b038381166001600160a01b0319831681178455604051919092169283917f8be0079c531659141344cd1fd0a4f28419497f9722a3daafe3b4186f6b6457e09190a35050565b5f516020610b7f5f395f51905f525460020361048957604051633ee5aeb560e01b815260040160405180910390fd5b6040516323b872dd60e01b5f8181526001600160a01b038781166004528616602452604485905291602083606481808c5af1925060015f5114831661093c578383151615610930573d5f823e3d81fd5b5f883b113d1516831692505b604052505f60605295945050505050565b5f6020828403121561095d575f5ffd5b813561ffff8116811461096e575f5ffd5b9392505050565b80356001600160a01b038116811461098b575f5ffd5b919050565b8035801515811461098b575f5ffd5b5f5f604083850312156109b0575f5ffd5b6109b983610975565b91506109c760208401610990565b90509250929050565b5f5f5f5f608085870312156109e3575f5ffd5b6109ec85610975565b93506109fa60208601610975565b93969395505050506040820135916060013590565b5f60208284031215610a1f575f5ffd5b5035919050565b5f60208284031215610a36575f5ffd5b61096e82610975565b5f5f5f5f5f60a08688031215610a53575f5ffd5b610a5c86610975565b9450610a6a60208701610975565b94979496505050506040830135926060810135926080909101359150565b5f5f5f60408486031215610a9a575f5ffd5b833567ffffffffffffffff811115610ab0575f5ffd5b8401601f81018613610ac0575f5ffd5b803567ffffffffffffffff811115610ad6575f5ffd5b8660208260051b8401011115610aea575f5ffd5b602091820194509250610afe908501610990565b90509250925092565b634e487b7160e01b5f52601160045260245ffd5b8082028115828204841417610b3257610b32610b07565b92915050565b5f82610b5257634e487b7160e01b5f52601260045260245ffd5b500490565b81810381811115610b3257610b32610b07565b634e487b7160e01b5f52603260045260245ffdfe9b779b17422d0df92223018b32b4d1fa46e071723d6817e2486d003becc55f00a26469706673582212207c994ad603b11da77fdb3d73ba7a58391f8274c504cfe0ad5fde6fb5b98c853964736f6c634300081e0033000000000000000000000000e8664c696a35186c47d3aca5eb4ad77136b09c52000000000000000000000000e8664c696a35186c47d3aca5eb4ad77136b09c520000000000000000000000000000000000000000000000000000000000000064",
        "nonce": "0x10",
        "chainId": "0x4cef52"
      },
      "additionalContracts": [],
      "isFixedGasLimit": false
    },
    {
      "hash": "0x26b8eb6cba3daac0d9805a43ee361addfbdaf82aa36813d3aee3044f504a4991",
      "transactionType": "CALL",
      "contractName": "CinchPayProcessor",
      "contractAddress": "0xd4abc1dbc1bfa47b702a3f23ec6f6ebf89d80a36",
      "function": "setTokensAccepted(address[],bool)",
      "arguments": [
        "[0x3600000000000000000000000000000000000000, 0x89B50855Aa3bE2F677cD6303Cec089B5F319D72a]",
        "true"
      ],
      "transaction": {
        "from": "0xe8664c696a35186c47d3aca5eb4ad77136b09c52",
        "to": "0xd4abc1dbc1bfa47b702a3f23ec6f6ebf89d80a36",
        "gas": "0x19efd",
        "value": "0x0",
        "input": "0xe156e49d000000000000000000000000000000000000000000000000000000000000004000000000000000000000000000000000000000000000000000000000000000010000000000000000000000000000000000000000000000000000000000000002000000000000000000000000360000000000000000000000000000000000000000000000000000000000000089b50855aa3be2f677cd6303cec089b5f319d72a",
        "nonce": "0x11",
        "chainId": "0x4cef52"
      },
      "additionalContracts": [],
      "isFixedGasLimit": false
    }
  ],
  "receipts": [
    {
      "status": "0x1",
      "cumulativeGasUsed": "0x1c3d91",
      "logs": [
        {
          "address": "0xd4abc1dbc1bfa47b702a3f23ec6f6ebf89d80a36",
          "topics": [
            "0x8be0079c531659141344cd1fd0a4f28419497f9722a3daafe3b4186f6b6457e0",
            "0x0000000000000000000000000000000000000000000000000000000000000000",
            "0x000000000000000000000000e8664c696a35186c47d3aca5eb4ad77136b09c52"
          ],
          "data": "0x",
          "blockHash": "0x02ca68b1149292a3254e3dcf307edc22160f3f6bd2abf615e56b45f1a846390e",
          "blockNumber": "0x28bab0d",
          "blockTimestamp": "0x6a09fc0f",
          "transactionHash": "0x26a96ab09b4e483128a8cb1312a1c54a71f15c50ed56cdeb3966be6865d71f30",
          "transactionIndex": "0xb",
          "logIndex": "0x27",
          "removed": false
        }
      ],
      "logsBloom": "0x00000000000000000000000000000000000000000000000000800000000000000000000000000000000000000000000000000000000000000000000000000000000000000000000000000000000000000001000000000000000000000000000000000000020000000000000000000800000800000000000000000000000000400000000100000000000000000000000000800000000000000000000400000000000000000000000000000000000000000000000000000000000000000000000000000000000000000000000000000000000000000000000000000000000020000001000000000000040000000000000000000000000000000000000000000000",
      "type": "0x2",
      "transactionHash": "0x26a96ab09b4e483128a8cb1312a1c54a71f15c50ed56cdeb3966be6865d71f30",
      "transactionIndex": "0xb",
      "blockHash": "0x02ca68b1149292a3254e3dcf307edc22160f3f6bd2abf615e56b45f1a846390e",
      "blockNumber": "0x28bab0d",
      "gasUsed": "0xbfa42",
      "effectiveGasPrice": "0x4a841769f",
      "from": "0xe8664c696a35186c47d3aca5eb4ad77136b09c52",
      "to": null,
      "contractAddress": "0xd4abc1dbc1bfa47b702a3f23ec6f6ebf89d80a36"
    },
    {
      "status": "0x1",
      "cumulativeGasUsed": "0x2959d2",
      "logs": [
        {
          "address": "0xd4abc1dbc1bfa47b702a3f23ec6f6ebf89d80a36",
          "topics": [
            "0x4830f50c82a3c08b91bf3770bf51afe49fb5fac668efd79737a514ba1a77d8ff",
            "0x0000000000000000000000003600000000000000000000000000000000000000"
          ],
          "data": "0x0000000000000000000000000000000000000000000000000000000000000001",
          "blockHash": "0xa0415332aa98b09e42892645a61ce082d4fc363d6dc1a2f36d26a70ecd412361",
          "blockNumber": "0x28bab11",
          "blockTimestamp": "0x6a09fc11",
          "transactionHash": "0x26b8eb6cba3daac0d9805a43ee361addfbdaf82aa36813d3aee3044f504a4991",
          "transactionIndex": "0xd",
          "logIndex": "0x35",
          "removed": false
        },
        {
          "address": "0xd4abc1dbc1bfa47b702a3f23ec6f6ebf89d80a36",
          "topics": [
            "0x4830f50c82a3c08b91bf3770bf51afe49fb5fac668efd79737a514ba1a77d8ff",
            "0x00000000000000000000000089b50855aa3be2f677cd6303cec089b5f319d72a"
          ],
          "data": "0x0000000000000000000000000000000000000000000000000000000000000001",
          "blockHash": "0xa0415332aa98b09e42892645a61ce082d4fc363d6dc1a2f36d26a70ecd412361",
          "blockNumber": "0x28bab11",
          "blockTimestamp": "0x6a09fc11",
          "transactionHash": "0x26b8eb6cba3daac0d9805a43ee361addfbdaf82aa36813d3aee3044f504a4991",
          "transactionIndex": "0xd",
          "logIndex": "0x36",
          "removed": false
        }
      ],
      "logsBloom": "0x00000000000000000000000000000000000000000001000000000000100000000000000000000000000000000000000000000000000000000000000000000000000000000000000000000000000000000000000000000000000000000001000000000000000000000000000000000000000800000000020000000000000000000080000100000000000000000000000000000000080000000000000000000000000000000000000000000000000004000000000000000000000000004000000000000000000000000000000000000000000000000000000000000000000000000001000000000000000000000000000000000000004000000000000000000000",
      "type": "0x2",
      "transactionHash": "0x26b8eb6cba3daac0d9805a43ee361addfbdaf82aa36813d3aee3044f504a4991",
      "transactionIndex": "0xd",
      "blockHash": "0xa0415332aa98b09e42892645a61ce082d4fc363d6dc1a2f36d26a70ecd412361",
      "blockNumber": "0x28bab11",
      "gasUsed": "0x11bc1",
      "effectiveGasPrice": "0x4a841769f",
      "from": "0xe8664c696a35186c47d3aca5eb4ad77136b09c52",
      "to": "0xd4abc1dbc1bfa47b702a3f23ec6f6ebf89d80a36",
      "contractAddress": null
    }
  ],
  "libraries": [],
  "pending": [],
  "returns": {
    "processor": {
      "internal_type": "contract CinchPayProcessor",
      "value": "0xD4aBC1dbc1Bfa47B702a3F23Ec6f6EBF89D80A36"
    }
  },
  "timestamp": 1779039251250,
  "chain": 5042002,
  "commit": null
}